{
  "contractName": "ICOToken",
  "abi": [
    {
      "inputs": [
        {
          "internalType": "address",
          "name": "_token20Address",
          "type": "address"
        },
        {
          "internalType": "uint256",
          "name": "_tokenPrice",
          "type": "uint256"
        }
      ],
      "stateMutability": "nonpayable",
      "type": "constructor"
    },
    {
      "anonymous": false,
      "inputs": [
        {
          "indexed": true,
          "internalType": "address",
          "name": "_buyer",
          "type": "address"
        },
        {
          "indexed": false,
          "internalType": "uint256",
          "name": "_tokenbuy",
          "type": "uint256"
        }
      ],
      "name": "Sell",
      "type": "event"
    },
    {
      "inputs": [],
      "name": "tokenPrice",
      "outputs": [
        {
          "internalType": "uint256",
          "name": "",
          "type": "uint256"
        }
      ],
      "stateMutability": "view",
      "type": "function",
      "constant": true
    },
    {
      "inputs": [],
      "name": "tokenSold",
      "outputs": [
        {
          "internalType": "uint256",
          "name": "",
          "type": "uint256"
        }
      ],
      "stateMutability": "view",
      "type": "function",
      "constant": true
    },
    {
      "inputs": [
        {
          "internalType": "address",
          "name": "_newtoken20",
          "type": "address"
        }
      ],
      "name": "setNewToken20",
      "outputs": [],
      "stateMutability": "nonpayable",
      "type": "function"
    },
    {
      "inputs": [
        {
          "internalType": "uint256",
          "name": "_tokenbuy",
          "type": "uint256"
        }
      ],
      "name": "BuyToken",
      "outputs": [],
      "stateMutability": "payable",
      "type": "function",
      "payable": true
    },
    {
      "inputs": [],
      "name": "transferMoneyTo",
      "outputs": [],
      "stateMutability": "nonpayable",
      "type": "function"
    }
  ],
  "bytecode": "0x6080604052600080546001600160a01b0319163317905534801561002257600080fd5b506040516106583803806106588339818101604052604081101561004557600080fd5b508051602090910151600255600380546001600160a01b0319166001600160a01b039092169190911790556105d98061007f6000396000f3fe60806040526004361061004a5760003560e01c8063394e5b581461004f578063519ee19e14610084578063793fac22146100ab5780637ff9b596146100c0578063fcb0368c146100d5575b600080fd5b34801561005b57600080fd5b506100826004803603602081101561007257600080fd5b50356001600160a01b03166100f2565b005b34801561009057600080fd5b50610099610167565b60408051918252519081900360200190f35b3480156100b757600080fd5b5061008261016d565b3480156100cc57600080fd5b506100996103ca565b610082600480360360208110156100eb57600080fd5b50356103d0565b6000546001600160a01b03163314610145576040805162461bcd60e51b81526020600482015260116024820152703cb7ba9030b932903737ba1037bbb732b960791b604482015290519081900360640190fd5b600380546001600160a01b0319166001600160a01b0392909216919091179055565b60015481565b6000546001600160a01b031633146101c0576040805162461bcd60e51b81526020600482015260116024820152703cb7ba9030b932903737ba1037bbb732b960791b604482015290519081900360640190fd5b600354604080516370a0823160e01b815230600482015290516000926001600160a01b0316916370a08231916024808301926020929190829003018186803b15801561020b57600080fd5b505afa15801561021f573d6000803e3d6000fd5b505050506040513d602081101561023557600080fd5b5051111561038d57600354600054604080516370a0823160e01b815230600482015290516001600160a01b039384169363a9059cbb93169184916370a0823191602480820192602092909190829003018186803b15801561029557600080fd5b505afa1580156102a9573d6000803e3d6000fd5b505050506040513d60208110156102bf57600080fd5b5051604080516001600160e01b031960e086901b1681526001600160a01b03909316600484015260248301919091525160448083019260209291908290030181600087803b15801561031057600080fd5b505af1158015610324573d6000803e3d6000fd5b505050506040513d602081101561033a57600080fd5b505161038d576040805162461bcd60e51b815260206004820152601f60248201527f6e65656420746f207472616e7366657220746865206c65667420746f6b656e00604482015290519081900360640190fd5b600080546040516001600160a01b03909116914780156108fc02929091818181858888f193505050501580156103c7573d6000803e3d6000fd5b50565b60025481565b6103dc81600254610520565b3414610423576040805162461bcd60e51b81526020600482015260116024820152706e65656420656e6f7567682076616c756560781b604482015290519081900360640190fd5b600354604080516370a0823160e01b8152306004820152905183926001600160a01b0316916370a08231916024808301926020929190829003018186803b15801561046d57600080fd5b505afa158015610481573d6000803e3d6000fd5b505050506040513d602081101561049757600080fd5b505110156104df576040805162461bcd60e51b815260206004820152601060248201526f3737ba1032b737bab3b4103a37b5b2b760811b604482015290519081900360640190fd5b600180548201905560408051828152905133917f5e5e995ce3133561afceaa51a9a154d5db228cd7525d34df5185582c18d3df09919081900360200190a250565b60008261052f5750600061057c565b8282028284828161053c57fe5b04146105795760405162461bcd60e51b81526004018080602001828103825260218152602001806105836021913960400191505060405180910390fd5b90505b9291505056fe536166654d6174683a206d756c7469706c69636174696f6e206f766572666c6f77a2646970667358221220536b10d29521ef9c02d62087f0a2d34321109c89fa4636d1fa157e553ceeea6364736f6c63430006070033",
  "immutableReferences": {},
  "source": "pragma solidity 0.6.7;\n\ncontract ICOToken\n{\n\taddress payable owner = payable(msg.sender);\n\tuint256 public tokenSold;\n\tuint256 public tokenPrice;\n\ttoken20 token20Contract;\n\tevent Sell(address indexed _buyer,uint256 _tokenbuy);\n\tconstructor(address _token20Address,uint256 _tokenPrice) public\n\t{\n\t\ttokenPrice = _tokenPrice;\n\t    token20Contract = token20(_token20Address);\n\t}\n\tmodifier onlyOwner\n\t{\n\t\trequire(msg.sender == owner,\"you are not owner\");\n\t\t_;\n\t}\n\tfunction setNewToken20(address _newtoken20) external onlyOwner\n\t{\n\t\ttoken20Contract = token20(_newtoken20);\n\t}\n\tfunction mul(uint256 a, uint256 b) internal pure returns (uint256)\n    {\n        if (a == 0)\n        {\n            return 0;\n        }\n  \t\tuint256 c = a * b;\n        require(c / a == b, \"SafeMath: multiplication overflow\");\n\t\treturn c;\n    }\n\n\tfunction BuyToken(uint256 _tokenbuy) public payable\n\t{\n\t\trequire(msg.value == mul(_tokenbuy,tokenPrice),\"need enough value\");\n\t\trequire(token20Contract.balanceOf(address(this))>= _tokenbuy,\"not enough token\");\n\t\ttokenSold += _tokenbuy;\n      \temit Sell(msg.sender,_tokenbuy);\n\t}\n\tfunction transferMoneyTo() public onlyOwner\n\t{\n\t\tif(token20Contract.balanceOf(address(this)) > 0)\n\t\t{\n\t\trequire(token20Contract.transfer(owner,token20Contract.balanceOf(address(this))),\"need to transfer the left token\");\n\t    }\n\t    owner.transfer(address(this).balance);\n\n\t    \n\t}\n\n\n\n}\n\nabstract contract token20\n{\n\tmapping(address => uint) public balanceOf;\n\tuint public totalSupply;\n\tfunction transfer(address _to,uint _value) public virtual returns(bool success);\n}",
  "sourcePath": "/home/kheng/Desktop/ICO_TOKEN/contracts/ICOToken.sol",
  "compiler": {
    "name": "solc",
    "version": "0.6.7+commit.b8d736ae.Emscripten.clang"
  },
  "schemaVersion": "3.2.0",
  "updatedAt": "2020-05-27T08:42:26.464Z",
  "networkType": "ethereum",
  "devdoc": {
    "methods": {}
  },
  "userdoc": {
    "methods": {}
  }
}